:03000000020BD41C
:0C0BD400787FE4F6D8FD75811C02080053
:100A3500202053544152542050524F4752414D208B
:100A450000202020464952535420494E50555420E9
:100A550020002020204E45585420494E5055542002
:100A6500202000202020534F5254494E472E2E2E31
:100A7500202020002020202020534F5254494E474B
:100A8500202020200020202020434F4D504C45544D
:100A950045442020200020204E554D4245522054EB
:100AA5004F2042452020002020202053454152431D
:100AB5004845442020202000202020544845204936
:100AC5004E44455820495320200020202020204E08
:100AD500554D424552202020202000202020204E28
:0C0AE5004F5420464F554E442020200066
:100AF100E590C454F0F5907F88120B77E4F5907F70
:060B0100E87E03120B77F1
:100B0700E4F5A0C282C280C2817F38FE120BB01208
:100B17000B737F067E00120BB0120B737F0C7E00E7
:100B2700120BB0120B737F017E00120BB0120B7306
:070B37007F807E00020BB07D
:0B0B6C007F807E00120BB07F047E0033
:100B7700E4FDFCC3ED9FEC9E5015E4FBFA0BBB00B4
:0F0B8700010ABA01F8BB7EF50DBD00010C80E438
:010B9600223C
:100BB000C280C281D2828FA07F0A7E00120B77C2D0
:020BC00082228F
:100BC200D280C281D2828FA07F0A7E00120B77C2AE
:020BD20082227D
:090B3E0075900F7BFF7A0A7957CC
:100B47008B1A8A1B891CAB1AAA1BA91C120B97604C
:100B570013051CE51C7002051B14F9120B97FF12F5
:050B67000BC280E22238
:10080000120B07120B6CE4F5907BFF7A0A79351214
:100810000B477F887E13120B77120B07120B6C7538
:10082000900F7BFF7A0A7946120B477F887E13125E
:100830000B77AF907508008F09120AF1120B6C123A
:100840000B3E7F887E13120B77AF90750A008F0BDB
:10085000120AF1120B6C120B3E7F887E13120B777B
:10086000AF90750C008F0D120AF1120B6C120B3E3B
:100870007F887E13120B77AF90750E008F0F120AD0
:10088000F1120B6C120B3E7F887E13120B77AF9028
:100890007510008F11E590C454F0F590120B0712FB
:1008A0000B6C7BFF7A0A7968120B477F887E1312E4
:1008B0000B77120B07120B6C7BFF7A0A7979120BFC
:1008C000477FC0120B6EE4F5907BFF7A0A798A129B
:1008D0000B477FE87E03120B77900001E4FFFEEFE9
:1008E00025E0240AF8E6FC08E6FDEF25E02408F8F8
:1008F000E6FA08E6FBD39DEC6480F8EA6480984051
:10090000258A128B13EF25E0240AF8E6FC08E6FDA1
:10091000EF25E02408F8A60408A605EF25E0240A40
:10092000F8A61208A6130FBF00010EEF64044E7064
:10093000AEA3E5826406458370A2E4F583F582AF39
:1009400082EF25E02408F808E6C454F0F5907F888B
:100950007E13120B77E4F5907FE87E03120B77A3EA
:10096000E5826405458370D77590FF120B07120B63
:100970006C7BFF7A0A799B120B477FC0120B6E7B50
:10098000FF7A0A79AC120B477F887E13120B77E54A
:1009900090C454F0F590E590C4540FF590AF907565
:1009A00014008F15E4F590120B077FE87E03120BFD
:1009B00077E4F518F519F583F582AF82EF25E02489
:1009C00008F8E6FE08E6B51510EEB5140C7518002B
:1009D000751901858316858217A3E5826405458311
:1009E00070D8E5194518601EE51704C454F0F59059
:1009F000120B07120B6C7BFF7A0A79BD120B477F33
:100A0000887E13120B77E519451870277590F01240
:100A10000B07120B6C7BFF7A0A79CF120B477FC052
:100A2000120B6E7BFF7A0A79E0120B477F887E13E8
:050A3000120B7780FEAF
:100B9700BB010689828A83E0225002E722BBFE025C
:090BA700E32289828A83E493228F
:00000001FF
