:03000000020100FA
:02010000805627
:10013000C0007804313BD8FCD00022C00078F4D84D
:10014000FED000227D147CFFDD0122DC0280F7312D
:100150003080F87813D8FE22D293D292D291D290E6
:100160003144D287E590540FFA9401600FEA94036A
:100170006011EA94076013EA940F6015B2871201C8
:100180009880F9B2871201A280F9B2871201AC807F
:10019000F9B2871201B680F97954D90122120153BC
:1001A00080F87949D9012212015380F87942D901A6
:1001B0002212015380F8793ED9012212015380F8AE
:00000001FF
