:03000000020100FA
:0801000031625107515F80FEDE
:100130007D147CFFDD0122DC0280F7314E80F87DEA
:10014000277CFFDD0122DC0280F7314E80F8C00001
:1001500078043159D8FCD00022C00078F4D8FED001
:100160000022759080D293D292D291D290313FE505
:1001700090540FC4759040D293D292D291D29031C4
:100180003F8590F053F00F25F0F5607590C0D29345
:10019000D292D291D290313FE590540FC475902005
:1001A000D293D292D291D290313F8590F053F00FFA
:1001B00025F0F5617590A0D293D292D291D2903170
:1001C0003FE590540FC4759060D293D292D291D2F1
:1001D00090313F8590F053F00F25F0F5627590E077
:1001E000D293D292D291D290313FE590540FC47500
:1001F0009010D293D292D291D290313F8590F05309
:10020000F00F25F0F563225001227A0578607964B9
:10021000DA0B787079647A05DA23D380EAE6940AF7
:100220007B054012E694147B0F400BE6941E7B196D
:1002300040047B238000C3EBF7080980D3E79405D3
:100240007B806015E7940F7B40600EE794197B205C
:030250006007E75D
:1002530094237B106000EBF6080980B97A0178706B
:100263007905BA0000D90280F3869008313080F511
:010273002268
:00000001FF
