:030000000209FCF6
:0C09FC00787FE4F6D8FD75812F020A43D5
:100A880020454E5445522050415353574F5244200D
:100A980000436F72726563742050617373776F726D
:100AA800640020416363657373204772616E7465E7
:100AB8006420002057726F6E672050617373776FE0
:100AC8007264200020204163636573732044656E5F
:100AD80069656420003132334100343536420037CD
:090AE800383943002A3023440090
:0E0C43000825313541382A443623020F0000BF
:100B7F00E4F5A0C282C280C2817F38FE120C1F1220
:100B8F000BBD7F067E00120C1F120BBD7F0C7E006B
:100B9F00120C1F120BBD7F017E00120C1F120BBD1A
:070BAF007F807E00020C1F95
:0B0BB6007F807E00120C1F7F047E0079
:100BC100E4FDFCC3ED9FEC9E5015E4FBFA0BBB006A
:0F0BD100010ABA01F8BB7EF50DBD00010C80E4EE
:010BE00022F2
:100C1F00C280C281D2828FA07F0A7E00120BC1C216
:020C2F0082221F
:100C3100D280C281D2828FA07F0A7E00120BC1C2F4
:020C410082220D
:100BE1008B2D8A2E892FAB2DAA2EA92F120C0660D0
:100BF10013052FE52F7002052E14F9120C06FF12B2
:050C01000C3180E2222D
:100B3A00751B00751CF0E51C640F451B6011E5B0C0
:100B4A00540F751B00F51C531C0F751B0080E7E53D
:100B5A001C640F451B700BE5B0540F751B00F51C88
:100B6A0080ED7F147E00120BC1E5B0540F8E1BF589
:050B7A001CAE1BFF2270
:100AF10085192D851A2EAD0BAC0AE51A4519700919
:100B010074DD2DF582740A8029E51A640145197096
:100B11000974E22DF582740A8018E51A64024519F8
:100B2100700974E72DF582740A800774EC2DF58243
:080B3100740A3CF583E493FF14
:010B39002299
:10080000851D1F851E20531E07751D00E51EB52082
:100810000AE51DB51F05E4F50AF50B851F1D8520AA
:100820001E531E0B751D00E51EB5200BE51DB51FE3
:1008300006750A00750B01851F1D85201E531E0DB0
:10084000751D00E51EB5200BE51DB51F06750A00D8
:10085000750B02851F1D85201E531E0E751D00E59C
:100860001EB5200BE51DB51F06750A00750B03D2DA
:10087000B7D2B6D2B5C2B4E5B0540F752100F52297
:10088000640F45216005E4F519F51AD2B7D2B6C256
:10089000B5D2B4E5B0540F752100F522640F45219F
:1008A0006006751900751A01D2B7C2B6D2B5D2B4B6
:1008B000E5B0540F752100F522640F4521600675DF
:1008C0001900751A02C2B7D2B6D2B5D2B4E5B05487
:1008D0000F752100F522640F45216006751900751A
:1008E0001A03120AF18F0E74112510F8A60EAF0E1E
:1008F000120C317F067E00120C1FE4F50CF50D2260
:10090000120B7F120BB67BFF7A0A7988120BE11269
:100910000BBD7FC0120C1F75B00F751B00751C0F2F
:10092000E51C640F451B700BE5B0540F751B00F5FB
:100930001C80ED7F147E00120BC1E5B0540F8E1B9E
:10094000F51C851B1DF51E120800750F00751001A2
:100950008008E51E640F451D700C75B00F120B3A30
:100960008E1D8F1E80EC1208000510E51070020528
:100970000FC39408E50F6480948040DEE4F508F529
:1009800009F523F524AF2474252FF8E6FE74112F02
:10099000F8E6B5060A0509E50970040508800005B2
:1009A00024E524700205236408452370D8E5096412
:1009B000084508701F120B7F120BB67BFF7A0A796D
:1009C00099120BE17FC0120BB87BFF7A0A79AA1249
:1009D0000BE180FEE50964084508601F120B7F12D9
:1009E0000BB67BFF7A0A79BB120BE17FC0120BB802
:0C09F0007BFF7A0A79CC120BE180FE221A
:100A0800020900E493A3F8E493A34003F68001F2FB
:100A180008DFF48029E493A3F85407240CC8C333EF
:100A2800C4540F4420C8834004F456800146F6DFBE
:100A3800E4800B0102040810204080900C43E47EFF
:100A4800019360BCA3FF543F30E509541FFEE493B3
:100A5800A360010ECF54C025E060A840B8E493A37A
:100A6800FAE493A3F8E493A3C8C582C8CAC583CAA5
:100A7800F0A3C8C582C8CAC583CADFE9DEE780BE5D
:010C510000A2
:100C0600BB010689828A83E0225002E722BBFE02EC
:090C1600E32289828A83E493221F
:00000001FF
