:03000000020100FA
:02010000805627
:10013000C0007804313BD8FCD00022C00078F4D84D
:10014000FED000227D147CFFDD0122DC0280F7312D
:100150003080F87813D8FE22D293D292D291D290E6
:10016000E590540FFAC394016014EAC3940360212C
:10017000EAC39407602EEAC3940F603B80DA75905F
:100180000FE590540FB401D0D297B2871201CA8004
:10019000ED75900FE590540FB403BDD296B287125F
:1001A00001D480ED75900FE590540FB407AAD29555
:1001B000B2871201DE80ED75900FE590540FB40FF9
:1001C00097D294B2871201E880ED7954D9012212B6
:1001D000015380F87949D9012212015380F87942FC
:1001E000D9012212015380F8793ED901221201531C
:0201F00080F895
:00000001FF
