:030000000209D022
:0C09D000787FE4F6D8FD75813D020A171F
:0F0B58000A2330313233343536373839012F3AEA
:100AA400E4F5A0C282C280C2817F38FE120B2012FC
:100AB4000AD7120B1C120AD77F0C7E00120B2012CD
:100AC4000AD77F017E00120B20120AD77F807E0096
:030AD400020B20F2
:040AD7007F047E001A
:100ADB00E4FDFCC3ED9FEC9E5015E4FBFA0BBB0051
:0F0AEB00010ABA01F8BB7EF50DBD00010C80E4D5
:010AFA0022D9
:070B1900120B467F067E006F
:100B2000C280C281D2828FA07F0A7E00120ADBC2FD
:020B300082221F
:100B4600D280C281D2828FA07F0A7E00120ADBC2C7
:020B56008222F9
:10080000AE21AF227C007D0A1209458E308F317CEB
:10081000007D0A120933C3E5229FF533E5219EF5D9
:1008200032AE3CAF3D1209458E348F357C007D0AD7
:10083000120933C3E53D9FF537E53C9EF5367F80D1
:100840007E00120B20120AD7E4F53AF53BE53B6433
:1008500002453A7005AF2F120B19A93BE925E02498
:1008600030F8E6FE08E64E7005AF23020919E925C7
:10087000E02430F8E6FE08E664014E7005AF24027D
:100880000919E925E02430F8E6FE08E664024E7016
:1008900005AF25020919E925E02430F8E6FE08E64F
:1008A00064034E7004AF268070E925E02430F8E63A
:1008B000FE08E664044E7004AF27805DE925E0245D
:1008C00030F8E6FE08E664054E7004AF28804AE979
:1008D00025E02430F8E6FE08E664064E7004AF29F1
:1008E0008037E925E02430F8E6FE08E664074E701C
:1008F00004AF2A8024E925E02430F8E6FE08E66407
:10090000084E7004AF2B8011E925E02430F8E6FE94
:1009100008E664094E7005AF2C120B19053BE53B48
:100920007002053AC39404E53A648094805003024F
:03093000084D224D
:100AFB00800BAF8CEF65397002E5386010AF8C75E9
:0E0B0B0038008F39AF8A752D008F2E80E522BD
:100A5C00200003C28C22D28C120AFBE5397B00FAEF
:100A6C00EB252EFFE52D3AFE7C0E7D101209458EEE
:100A7C00218F22EB252EFBE52D3AFA7C0E7D1012F0
:100A8C000933C3EB9FFFEA9EFE7C007D3C120945B7
:080A9C008E3C8F3D1208002280
:100B3200758905E4F58CF58A120AA4A29092001236
:040B42000A5C80F7D2
:1009DC00020B32E493A3F8E493A34003F68001F2F4
:1009EC0008DFF48029E493A3F85407240CC8C3331C
:1009FC00C4540F4420C8834004F456800146F6DFEB
:100A0C00E4800B0102040810204080900B58E47E17
:100A1C00019360BCA3FF543F30E509541FFEE493DF
:100A2C00A360010ECF54C025E060A840B8E493A3A6
:100A3C00FAE493A3F8E493A3C8C582C8CAC583CAD1
:100A4C00F0A3C8C582C8CAC583CADFE9DEE780BE89
:010B6700008D
:10093300EF8DF0A4A8F0CF8CF0A428CE8DF0A42ED8
:02094300FE2292
:10094500C2D5EC30E709B2D5E4C39DFDE49CFCEECD
:1009550030E715B2D5E4C39FFFE49EFE12097BC3C1
:10096500E49DFDE49CFC800312097B30D507C3E4BC
:060975009FFFE49EFE223C
:10097B00BC000BBE0029EF8DF084FFADF022E4CC60
:10098B00F875F008EF2FFFEE33FEEC33FCEE9DEC29
:10099B00984005FCEE9DFE0FD5F0E9E4CEFD22ED6F
:1009AB00F8F5F0EE8420D21CFEADF075F008EF2FB9
:1009BB00FFED33FD4007985006D5F0F222C398FDAA
:0509CB000FD5F0EA2247
:00000001FF
